:020000040000FA
:102000006BEF3EF0FFFFFFFFFFFFFFFFFFFFFFFF54
:10201000FFFFFFFFFFFFFFFFFFFFFFFFFFFFFFFFD0
:10202000FFFFFFFFFFFFFFFFFFFFFFFFFFFFFFFFC0
:10203000FFFFFFFFFFFFFFFFFFFFFFFFFFFFFFFFB0
:107CC000FFFFFFFFFFFFFFFFFFFFFFFF9DEC3EF009
:107CD00070EC3EF01200000EF86E000180EF3EF0F6
:107CE000700ED36E000ED26E800E9B6E000EB56EBF
:107CF000D2AE7DEF3EF07FEF3EF078EF3EF0120027
:107D000066EC3EF0BEEC3EF0086E310E0818D8A4CA
:107D10008CEF3EF08EEF3EF08FEF3EF08988300E14
:107D20000818D8A496EF3EF098EF3EF082EF3EF0B0
:107D3000899882EF3EF000EF10F0000E8D6E000E7D
:107D40008C6E000E896EF00E8A6E000E8B6E070E22
:107D5000966EED0E926E0F0E936EC70E946E956832
:107D60000F015E69C40E5D6F000E5C6F070E5F6FE2
:107D7000200E5B6F000E856EF18E1200100E036EEA
:107D80008150F009066E0628D8B4C9EF3EF0CBEF5B
:107D90003EF0F4EF3EF0F70E076E000E056E075052
:107DA0000724076E07C08AFF100E016E940EE82E9E
:107DB000FED7012EFCD700D08150F009046E0428B4
:107DC000D8B4E5EF3EF0E7EF3EF0EBEF3EF00750C2
:107DD0000F090614066E052A030E0564F2EF3EF045
:107DE000F4EF3EF0CFEF3EF00F0E8A6E200E016EE4
:107DF0002A0EE82EFED7012EFCD732EF3FF0300ED0
:107E00007FEF3FF0310E7FEF3FF0320E7FEF3FF01C
:107E1000330E7FEF3FF0340E7FEF3FF0350E7FEFF4
:107E20003FF0360E7FEF3FF0370E7FEF3FF0380E1A
:107E30007FEF3FF0390E7FEF3FF0410E7FEF3FF0D5
:107E4000420E7FEF3FF0430E7FEF3FF0440E7FEF97
:107E50003FF02A0E7FEF3FF0230E7FEF3FF0200E22
:107E60007FEF3FF00650016E026A0250000AD8B45C
:107E70003CEF3FF02FEF3FF00150770AD8B426EFE8
:107E80003FF00C0AD8B423EF3FF0060AD8B420EF35
:107E90003FF0030AD8B41DEF3FF0C90AD8B42CEF65
:107EA0003FF00C0AD8B41AEF3FF0060AD8B411EF2D
:107EB0003FF0030AD8B408EF3FF0690AD8B4FFEFE7
:107EC0003EF00C0AD8B417EF3FF0060AD8B40EEF14
:107ED0003FF0030AD8B405EF3FF0390AD8B429EFD0
:107EE0003FF00C0AD8B414EF3FF0060AD8B40BEFF9
:107EF0003FF0030AD8B402EF3FF02FEF3FF012003B
:020000040030CA
:0400000003285F3C36
:0200060081FF78
:020000040020DA
:080000000504020700000000E6
:00000001FF
