:020000040000FA
:1020000030EF3EF0FFFFFFFFFFFFFFFFFFFFFFFF8F
:10201000FFFFFFFFFFFFFFFFFFFFFFFFFFFFFFFFD0
:107C4000FFFFFFFFFFFFFFFF000E896E92981200FB
:107C50003132334134353642373839432A302344C0
:107C6000500EF66E7C0EF76E000EF86E00EE01F010
:107C700010EE10F00900F5CFEEFFE550E150FAE10B
:107C8000136A126A116A000146EF3EF024EC3EF0DE
:107C9000F19E64EC3EF0166E310E1618D8A453EF28
:107CA0003EF055EF3EF056EF3EF08088300E16184D
:107CB000D8A45DEF3EF05FEF3EF049EF3EF08098D4
:107CC00049EF3EF000EF10F0F00E936EF00E8A6E6A
:107CD0008150F00B136EF00E1318D8A472EF3EF023
:107CE00074EF3EF068EF3EF08150F00B136EF00E33
:107CF0001318D8A47EEF3EF080EF3EF068EF3EF020
:107D0000040E156E0C0E146E340EE82EFED7142ED3
:107D1000FCD7152EFAD7F00E8A6E8150F00B136E39
:107D2000F00E1318D8B497EF3EF099EF3EF08DEFB8
:107D30003EF08150F00B136EF00E1318D8B4A3EF81
:107D40003EF0A5EF3EF08DEF3EF0020E156E380EC0
:107D5000146EAD0EE82EFED7142EFCD7152EFAD7D2
:107D600000F08150F00B136EFE0E8A6E8150F00B06
:107D7000136E13C011F0F00E1318D8B4C2EF3EF01A
:107D8000C4EF3EF0D6EF3EF0000E126ECBEF3EF0A9
:107D90008150F00B116EF00E1118D8A4D2EF3EF006
:107DA000D4EF3EF0C8EF3EF03AEF3FF0FD0E8A6EA2
:107DB0008150F00B136E13C011F0F00E1318D8B4ED
:107DC000E4EF3EF0E6EF3EF0F8EF3EF0010E126E0B
:107DD000EDEF3EF08150F00B116EF00E1118D8A4AB
:107DE000F4EF3EF0F6EF3EF0EAEF3EF03AEF3FF010
:107DF000FB0E8A6E8150F00B136E13C011F0F00E63
:107E00001318D8B406EF3FF008EF3FF01AEF3FF039
:107E1000020E126E0FEF3FF08150F00B116EF00E5C
:107E20001118D8A416EF3FF018EF3FF00CEF3FF019
:107E30003AEF3FF0F70E8A6E8150F00B136E13C0CD
:107E400011F0F00E1318D8B428EF3FF02AEF3FF0EE
:107E5000B4EF3EF0030E126E31EF3FF08150F00BA5
:107E6000116EF00E1118D8A438EF3FF03AEF3FF042
:107E70002EEF3FF0E00E1318D8A441EF3FF043EF90
:107E80003FF04EEF3FF01250040D010EF324D96E77
:107E9000000EF420DA6EDF507FEF3FF0D00E1318A3
:107EA000D8A455EF3FF057EF3FF062EF3FF012508C
:107EB000040D020EF324D96E000EF420DA6EDF50AA
:107EC0007FEF3FF0B00E1318D8A469EF3FF06BEFCF
:107ED0003FF076EF3FF01250040D030EF324D96EFD
:107EE000000EF420DA6EDF507FEF3FF01250040DE9
:107EF000040EF324D96E000EF420DA6EDF50120067
:020000040030CA
:08000000000E181EFF8181FFB4
:020000040020DA
:08000000010E070D00000000D5
:00000001FF
